:0912C8002020202020202020001D
:10122C00043500000000083AFFFFFFFFFFFFFFFF3F
:02123C00C109E6
:0C12A3007F2E7E997DF5DDFEDEFCDFFA7B
:0112AF00221C
:1011BF0012113A12123FD2AF1212A3121094120F41
:0611CF008412000380F50C
:03001B00020CA430
:100CA400C0E0C0F0C083C082C0D075D000C000C016
:100CB40001C002C003C004C005C006C007E5382453
:100CC40001F538E43537F537E43536F536E43535AE
:100CD400F535052AE52A70020529640A45297004B8
:100CE400F529F52A0526E52670020525FFAE25BE61
:100CF4000109BFF4067525007526000524E5247056
:100D0400020523646445237004F523F5247B007AEB
:100D140000793AAD39120F090539E539B40803757C
:100D24003900AF42121276D007D006D005D004D0D5
:100D340003D002D001D000D0D0D082D083D0F0D064
:020D4400E0329B
:10109400E52A4529701F752900752A01120B9D8FB9
:1010A40022E52865225522F52785222824F5700596
:0610B400A209B39209221B
:100F8400E5264525702D7525007526012009127565
:100F940046FF7547127548C87B007A00792B120604
:100FA4007675460075470075483A7B007A00792BC0
:040FB400120A892272
:10000300E524452370107523007524012009047528
:0700130042FF22E4F5422246
:10123F00438E4053890F758B5C758DF7C28FD28E9D
:03124F00D2AB22FD
:10121700759850438E01438E0475D78F75D6FD435D
:051227008E10D2AC2284
:1011D50012051D6010F5993099FDC299740129F920
:0611E500E43AFA80EB225F
:10125200E4FEC297EF1392A3EFC313FFD2970EBE21
:0212620008F092
:011264002267
:0811570075F00A84E5F04EFD7D
:10115F00C29300C29700D29300121252AF0512121F
:04116F0052C29322B3
:100FB800E4FDC29300C29700D29300121252E4FFDC
:100FC800C297EDC313FD30A303430580D2970FBF2B
:100FD80008EEC29300C29700D29700C2A300D2A322
:030FE80000AF0552
:010FEB0022E3
:100E2500E4FD7F8E12115F12051DFF75F00A84C463
:100E350054F0FEEF7F84121157900001120536FF22
:100E450075F00A84C454F0FEEF7F821211579000AA
:100E550002120536FF75F00A84C454F0FEEF75F0F2
:100E65000A84E5F04EFD7F8012115F7D807F8E0242
:020E7500115F0B
:100EC4007F85120FB8EFC4540F75F00AA4FEEF54D7
:100ED4000F2E1205637F83120FB8EFC4540F75F001
:100EE4000AA4FEEF540F2E9000011205757F8112A3
:100EF4000FB8EFC4540F75F00AA4FEEF540F2E90F0
:050F040000020205756A
:0412B000D2A07F0544
:0812B40000AE071FEE70F922E5
:0F128600D2A11212B0C2A17F051212B4C2A022CF
:0C12BC00C2A11212B0D2A17F050212B430
:1011A800C2A0A20A92A17F051212B41212B0C2A064
:0711B800D2A17F050212B471
:0A117300AB071212867F90120FF3F3
:10117D001212B0A2A1920BC2A07F051212B4A20B43
:01118D00223F
:070FEC00AB051212867FA085
:020FF300AD0748
:100FF500E4FCC2A07F051212B4ED30E704D2A18053
:1010050002C2A17F051212B4D2A0ED25E0FD7F0535
:091015001212B40CBC08DBC2A0ED
:01101E0022AF
:10111D00E4FC1212B0ED25E0FD30A103430501C240
:0C112D00A07F051212B40CBC08E8AF054E
:011139002293
:1010BA00121173AF03120FF312117D1212867F9170
:1010CA00120FF312117D12111DAD07D20A1211A8C7
:0510DA001212BCAF057D
:0110DF0022EE
:100E77008B088A09890A120FEC12117DAF03120F32
:100E8700F312117D1212867FA1120FF312117DAF9B
:100E97000C150CEF602412111DAB08050AE50AAA10
:100EA700097002050914F9EF120563E50C6004C225
:0D0EB7000A8002D20A1211A880D50212BCD6
:1011EB001211737F41120FF312117DAF03120FF324
:0611FB0012117D0212BC7E
:100F47008B0D8A0E890F120FEC12117DAF03120F52
:100F5700F312117DAF111511EF601FAB0D050FE5F2
:100F67000FAA0E7002050E14F912051DFF120FF3DA
:0D0F770012117D7FC81212B480DA0212BC84
:10113A007580FFE5A0541F4480F5A053A01FE4F575
:0D114A0080E5A0541F44A0F5A053A01F2273
:1010E00020B0047F07801720B1047F06801020B253
:0E10F000047F05800920B3047F048002E4FF22
:0110FE0022CF
:100B9D00C2C4D2C2D2B5D2B4E5B0540F7E00D2C415
:100BAD00C2C2D2B5D2B4C4F8540FC868FFEEC45453
:100BBD00F048FEE5B0540FFDEF4DD2C4D2C2C2B520
:100BCD00D2B4C4F8540FC868FFEEC454F048FEE523
:100BDD00B0540FFDEF4DD2C4D2C2D2B5C2B4C4F8D9
:100BED00540FC868FFEEC454F048FEE5B0540FFD35
:100BFD00EF4DF4FFEEF4FEEF8EF01205ED0C9900C3
:100C0D00010C9400020C8F00040C8A00080C850066
:100C1D00100C8000200C7B00400C7600800C7101C4
:100C2D00000C6C02000C6704000C6208000C5D10D7
:100C3D00000C5820000C5340000C4E800000000C9E
:100C4D009E754304804E7543058049754306804467
:100C5D00754307803F754308803A754309803575A4
:100C6D00430A803075430B802B75430C80267543EA
:100C7D000D802175430E801C75430F801775431031
:100C8D008012754311800D754312800875431380D2
:060C9D0003E4F543AF4340
:010CA300222E
:10127600EFF4F580E5A0541F4480F5A053A01F228B
:041201007F057E00E7
:101205007C007D0C120597EF1FAC0670011E4C701B
:02121500F622BF
:0210FF00AB073D
:10110100E4FAC294EB139294121201D294EBC3133A
:0C111100FB0ABA08ED7F057E0002120503
:10118E00E4FAC294EBC313FBD2943094034303806E
:09119E001212010ABA08EBAF03BA
:0111A7002225
:10101F00C20CD2947F0C7E00121205C2947F507EB8
:10102F0000121205D2947F0A7E00121205A294922A
:06103F000C121201A20CCC
:011045002288
:1010460012101F7FCC1210FF7F441210FF12101FC8
:101056007FCC1210FF7FBE1210FF12118EA907124D
:06106600118EEFFEE9FF10
:01106C002261
:060A89008B438A448945FD
:100A8F00E4F549F54AF549E549D394074003020BCC
:100A9F009CAB43AA44A945854A827583001205364B
:100AAF001205C70B69200B642D0AFB300B00310BAD
:100ABF0005320B0A330B0F340B14350B19360B1E83
:100ACF00370B23380B28390B2D410B32420B374391
:100ADF000B3C440B41450B46460B4B480B504C0B04
:100AEF00554E0B5A500B5F5500000B69754BC0806C
:100AFF006C754BF98067754BA48062754BB0805D48
:100B0F00754B998058754B928053754B82804E75FB
:100B1F004BF88049754B808044754B90803F754BE7
:100B2F0088803A754B838035754BC68030754BA1E5
:100B3F00802B754B868026754B8E8021754B898057
:100B4F001C754BC78017754BC88012754B8C800D69
:100B5F00754BC18008754BBF8003754BFF854A826B
:100B6F00758300A3AB43AA44A945120536B42E05DD
:100B7F00534B7F054AAB46AA47A9488549827583DF
:0D0B8F0000E54B1205750549054A020A965E
:010B9C002236
:100F09007401A805088002C333D8FCF580E5A05414
:100F19001F44C0F5A053A01F7580FFE5A0541F44CE
:100F2900E0F5A053A01FAF058F8275830012053627
:0E0F3900F580E5A0541F44E0F5A053A01F2250
:0E1295005389F0438905E4F58AF58CD28C224A
:10126500538E7F5389F0758AF4758CFFC28DC28CBD
:011275002256
:100DD2007E0AC290758AF4758CFFD28CAD061EED28
:100DE200600C308DFDA290B39290C28D80EEC28CC9
:100DF200E4F58AF58CD28C309105A28DB340F8C20D
:100E02008C308D067FFAC28D8018AF8CEFAD8AFCD4
:100E1200E41201297B967A43798B783C12001E12E8
:020E220001626B
:010E240022AB
:10001E00EC4D6011E8497017ED33EC3304600DE4DC
:10002E00FCFFFEFD22E933E8330470F80201CE1224
:10003E00019958046009E4CC248150062850090225
:10004E0001D82840030201D5C0E0EB4A7044B980C4
:10005E0006D0E0FB0201C4EF4E701CBD8008EBFF22
:10006E00EAFEE9FD80EBE98DF0A4FEE5F002010762
:10007E00E9CDF9EAFEEBFFEF89F0A4FCE5F0CE89BD
:10008E00F0A42EFFE435F0CD89F0A42DFEE435F07A
:10009E008067EF4E7005BD80D780C3EF8BF0A4ACA8
:1000AE00F0EE8BF0A42CFCE435F0F8EF8AF0A42CE3
:1000BE00E5F038FCE433CB8DF0A42CFCE5F03BF8F6
:1000CE00EE8AF0A42CFCE5F038F8E433CF89F0A4E6
:1000DE002CFCE5F038CF3400CE89F0A42FFFE5F0EC
:1000EE003EFEE433C98DF0A42EFEE5F039CD8AF044
:1000FE00A42FFFE5F03EFEE43DFD33D0E0FB5007BC
:10010E000BBB000F0201D8EC2CFCEF33FFEE33FEDD
:06011E00ED33FD0201B00B
:1001240075F020800E75F010800575F0087D007E56
:10013400007F003392D530D5031205A9EC3340106B
:10014400EF33FFEE33FEED33FDEC33FCD5F0ED225F
:0E015400E5F0247EA2D513CC92E7CDCEFF229B
:10016200EDD2E7CD33EC3392D524814006E4FFFE95
:10017200FDFC22FCE4CFCECDCC24E0501174FF80F4
:10018200EDC3CC13CCCD13CDCE13CECF13CF047091
:07019200F030D5DE0205A9E3
:10061A00E55A2446F8E6055A227843300702784616
:10062A00E475F0011205B702051D2000EB7F2ED2FA
:10063A00008018EF540F2490D43440D4FF30040BB8
:10064A00EF24BFB41A0050032461FFE55B60021572
:10065A005B055EE55E7002055D30070D7843E47563
:10066A00F0011205B7EF02056302106D7403D20799
:10067A008003E4C207F55A8B438A448945E4F55B53
:10068A00F55DF55EE55B60077F2012065580F5751E
:10069A005CFFC201C200C202C203C205C206C2088E
:1006AA00120623FF700D3007057F00120666AF5E43
:1006BA00AE5D22B4255FC2D5C204120623FF24D040
:1006CA00B40A00501A75F00A785B30D50508B6FFEF
:1006DA000106C6A426F620D5047002D20380D924C6
:1006EA00CFB41A00EF5004C2E5D204020953D20172
:1006FA0080C6D20080C0D20280BCD2D580BAD205D0
:10070A0080B47F201206552002077401B55B0040B1
:10071A00F112061AFF12065502068ED208D2068078
:10072A009512061AFB12061AFA12061AF94A4B70A1
:10073A0006794A7A0A7BFF20022EE55B602A7E0050
:10074A008E8275830012053660060EEE655C70F0C7
:10075A00C2D5EBC0E0EAC0E0E9C0E0EE1209B3D0CE
:10076A00E0F9D0E0FAD0E0FB12051DFF60AAEBC069
:10077A00E0EAC0E0E9C0E0120655D0E02401F9D071
:10078A00E03400FAD0E0FBE55C0460DCD55CD9809B
:10079A0087D20280A212099660F7E55C7001041202
:1007AA0001E3A95C600DE55C600914F55C120A3D81
:1007BA00EF60F3EA30E702F404C3995077EAF425CC
:1007CA005C0430E701E404F55C800D12099660C10F
:1007DA00EA055C255C1201E3EA7859F630E701E4A0
:1007EA00255C04D55C04200501141209B3E4C0E0B9
:1007FA00120A3D7859E6601320E70714F612063DFF
:10080A00802204F6D0E014C0E07F0012063DE55CC9
:10081A006007120634155C800B300503120634D0CB
:10082A00E002068ED0E00480C512099660A0E55C5D
:10083A00041201E37859EAF6E55C20050260010436
:05084A0024041209B3B3
:10084F0074FF04C0E0120A3D12063DE55C2005026C
:10085F006003120634D0E0B55CE87F451206477896
:10086F0059E67F2B30E7047F2DF404C0E0120655C4
:10087F00D0E075F00A84C0F012063ED0E012063EBA
:10088F0002068E791080027908C206C2088008D24B
:10089F00D5790A8004790AC2D5E55C047002F55C4B
:1008AF00E4FAFDFEFF12061AFC7B08200113120664
:1008BF001AFD7B1030000A12061AFE12061AFF7B71
:1008CF0020EC3382D592D55013C3E43000069FFF3E
:1008DF00E49EFEE42001039DFDE49CFCE4CBF8C202
:1008EF0001EC700CCFCECDCCE824F8F870F3801764
:1008FF00C3EF33FFEE33FEED33FDEC33FCEB33FB95
:10090F00994002FB0FD8E9EB300105F8D0E0C4485D
:10091F00B201C0E00AEC4D4E4F78207B0070C2EA66
:10092F00B55C0040BCC0E01209B5D0F0D0E02001AA
:10093F0004C4C0E0C4B201C0F012063ED0F0D5F03E
:10094F00EB02068E1205C7072B5308925806FC4C74
:10095F0006F84208964F089E44089E49071143081F
:10096F00A45507D546083345079F470A6A50070025
:10097F002D07042E07272B0708230725200A532AA4
:10098F0006C0480000071FE55CB4FF03755C061244
:10099F00061AFC12061AFD12061AFE12061AFF7824
:1009AF0052020212790AA2D5200314300509B91098
:1009BF00020404B9080104A2D52006025001042044
:1009CF0002689202B55B005034C0E07F20300319FB
:1009DF007F30A20272067205500F120A0CC202C2B9
:1009EF0006C205C2087F30800F300503E9C0E01250
:1009FF000655300503D0E0F9D0E0B55BCC300517D4
:100A0F007F30B9100C1206557F583004077F78805D
:100A1F0003B908031206553002057F2D0206557FD4
:100A2F00202008F87F2B2006F322920280CF7F0030
:100A3F00B4070050052452F8E6FF22286E756C6C3F
:100A4F002900D20112061A3001F8C201785B30D5A5
:100A5F000108F60206C02D5043495812061A240306
:100A6F00B405004001E4900A6593120646743A12E9
:0A0A7F000646D203755B04020892DC
:10019900E9D2E7C933E833F892D5EDD2E7CD33ECAC
:0701A90033FC5002B2D52225
:1001B000EC30E7100FBF000C0EBE00080DBD0004B0
:1001C0000BEB6014A2D5EB13FCED92E7FD2274FF5C
:1001D000FCFDFEFF22E480F8A2D574FF13FC7D80B5
:0301E000E480EFC9
:1001E300F920E72824F950037907E4F42402FB18E3
:1001F300DBFDE624FB5014E9600DE4F618E604F693
:0F020300B40A08E4F6D9F57401F60A22C2D5222E
:10021200ED33EC3392D5FA602AB4FF33EDC2E77BBB
:10022200FF60067A027937E4227A02794020D50407
:100232007A02793B224E614E002B494E46002D49EF
:100242004E4600E47A08F608DAFC7B00740722E8DE
:10025200C0E0ECC0E0EDC0E0EEC0E0EFC0E0EA7567
:10026200F010A4CAABF075F04DA42BFBE435F0FC02
:10027200EA2410FAEB34C5FBEC34D9FCEDC2E7FFFB
:1002820075F056A4F42411C5F0F434C58FF0A42AF5
:10029200E5F03BE43CF620E7141204DDD0E0FFD0A9
:1002A200E0FED0E0FDD0E0FC1204108014F4041251
:1002B20004DDD0E0FFD0E0FED0E0FDD0E0FC120093
:1002C2001ED0E0F8E6FAEDD2E7CD33EC332482FB20
:1002D200E4C3CF33CFCE33CECD33CD33DBF37B0785
:1002E20075F00A846004F6081B0AE5F0F6088FF040
:1002F200740AA4FFACF08EF0740AA42CFEACF05089
:10030200010C8DF0740AA42CFDE435F0F608DBDE56
:030312007407224B
:100315000201CEE86480F8E933E83360110460F047
:10032500ED33EC337009E8FCE9FDEAFEEBFF22044E
:1003350060DED3EB9FEA9EE99DE8C2E78CF0C2F749
:1003450095F0400CE8CCF8E9CDF9EACEFAEBCFFB15
:1003550012019985D0F05804700320D5B3E80470D4
:10036500075002B2D50201D892D5EC0460F7E4CC6F
:10037500C0E0C398F8603B94186008400DD0E0FBDE
:100385000201B0E4FBFAC9FC8028E830E406E4C9C0
:10039500FBE4CAFCE830E305E4C9CACBFCE8540732
:1003A5006010F8C3E913F9EA13FAEB13FBEC13FC3D
:1003B500D8F130F52FC3E49CFCEF9BFFEE9AFEEDE0
:1003C50099FDD0E0FBEF4E4D4C701222DB0302018C
:1003D500D5EC2CFCEF33FFEE33FEED33FDED30E7CE
:1003E500EB0201B0EF2BFFEE3AFEED39FDD0E0FB5D
:1003F50050130BBB00030201D8ED13FDEE13FEEF06
:0804050013FFEC13FC0201B02F
:10040D000201D8EC5D046005E8590470030201CEC9
:10041D00120199580460F6EC4860F2EC7004FDFE90
:10042D00FF22C860DB2481C85009C39860025006C2
:10043D000201D59850CAF582E9294B4A7005AB8265
:10044D000201C475F0007C1A7880C3EF9BEE9AED23
:10045D0099400DC3EF9BFFEE9AFEED99FDE842F03A
:10046D00DC23ACF0D0E0FFD0E0FED0E0FDAB82208D
:10047D00E7101BEB60BAEC2CFCEF33FFEE33FEED17
:10048D0033FD0201B0E803F830E705C0F075F00068
:10049D00EF2FFFEE33FEED33FD40B830E7C280AAFB
:1004AD003F8000004120000042C80000447A000057
:1004BD00461C400047C35000497424004B189680D9
:1004CD004CBEBC205A0E1BCA6753C21C749DC5AED0
:1004DD00FB60065407601C232312050BEB54386098
:1004ED00091204F712050612001EECF8EDF9EEFAEA
:1004FD00EFCB22EB12050680F1543803241C900437
:10050D00ADFE93FC0EEE93FD0EEE930ECE93FF22F9
:03000000020D46A8
:0C0D4600787FE4F6D8FD75815E020D8D0B
:10051D00BB010689828A83E0225002E722BBFE02DC
:09052D00E32289828A83E493220F
:10053600BB010CE58229F582E5833AF583E022507A
:1005460006E92582F8E622BBFE06E92582F8E222C4
:0D055600E58229F582E5833AF583E49322DE
:10056300BB010689828A83F0225002F722BBFE0177
:02057300F32271
:10057500F8BB010DE58229F582E5833AF583E8F0BC
:10058500225006E92582C8F622BBFE05E92582C868
:02059500F22250
:10059700EF8DF0A4A8F0CF8CF0A428CE8DF0A42E78
:0205A700FE2232
:0E05A900C3E49FFFE49EFEE49DFDE49CFC2263
:1005B700FAE6FB0808E6F925F0F618E6CA3AF62245
:1005C700D083D082F8E4937012740193700DA3A3C3
:1005D70093F8740193F5828883E4737402936860D7
:0605E700EFA3A3A380DFD7
:1005ED00D083D082F8E4937012740193700DA3A39D
:1005FD0093F8740193F5828883E473740293B5F0D4
:0D060D00067403936860E9A3A3A3A380D83B
:10106D00EFB40A07740D121078740A309811A8990C
:10107D00B8130CC2983098FDA899C298B811F630E3
:07108D0099FDC299F59922BB
:100D52000211BFE493A3F8E493A34003F68001F2E7
:100D620008DFF48029E493A3F85407240CC8C333A2
:100D7200C4540F4420C8834004F456800146F6DF71
:100D8200E4800B010204081020408090122CE47EC3
:100D9200019360BCA3FF543F30E509541FFEE49366
:100DA200A360010ECF54C025E060A840B8E493A32D
:100DB200FAE493A3F8E493A3C8C582C8CAC583CA58
:100DC200F0A3C8C582C8CAC583CADFE9DEE780BE10
:01123E0000AF
:00000001FF
