:10000300313233343536373800253032642D2530DC
:0800130032642D253032640037
:0D0C1600043800000000C1890328173B3797
:100B0A00120AD0120BD1D2AF7B007A0079281208D0
:0C0B1A000C120A471207B2120B7780F58C
:03001B0002068456
:10068400C0E0C0F0C083C082C0D075D000C000C03C
:1006940001C002C003C004C005C006C007E53B2476
:1006A40001F53BE4353AF53AE43539F539E43538C2
:1006B400F538052DE52D7002052C640A452C7004CF
:1006C400F52CF52D0526E52670020525FFAE25BE81
:1006D4000109BFF4067525007526000524E524707C
:1006E400020523646445237004F523F5247B007A12
:1006F40000793DAD3C1208F0053CE53CB4080375B7
:100704003C00AF45120BF7D007D006D005D004D07B
:1007140003D002D001D000D0D0D082D083D0F0D08A
:02072400E032C1
:100A4700E52D452C701F752C00752D0112048E8F16
:100A570022E52B65225522F52785222B24F57005E3
:060A6700A209B39209226E
:1007B200E5264525705375250075260120090B7520
:1007C2000BFF750C00750D0380247B007A007928DD
:1007D2001208AB750BFF750C00750D0C750E0085BC
:1007E200280F751000852911751200852A137B00C8
:1007F2007A00792E12007A750B00750C00750D3D8A
:0A0802007B007A00792E12037A229F
:100B7700E5244523701075230075240120090475A9
:070B870045FF22E4F54522C1
:100BD100538EBF53890F758B18758DFCC28FD28EC2
:030BE100D2AB2272
:100AD0007580FFE5A0541F4480F5A053A01FE4F5E6
:0D0AE00080E5A0541F44A0F5A053A01F22E4
:100BF700EFF4F580E5A0541F4480F5A053A01F2211
:100A930020B0047F07801720B1047F06801020B2A6
:0E0AA300047F05800920B3047F048002E4FF75
:010AB1002222
:10048E00C2C4D2C2D2B5D2B4E5B0540F7E00D2C42B
:10049E00C2C2D2B5D2B4C4F8540FC868FFEEC45469
:1004AE00F048FEE5B0540FFDEF4DD2C4D2C2C2B536
:1004BE00D2B4C4F8540FC868FFEEC454F048FEE539
:1004CE00B0540FFDEF4DD2C4D2C2D2B5C2B4C4F8EF
:1004DE00540FC868FFEEC454F048FEE5B0540FFD4B
:1004EE00EF4DF4FFEEF4FEEF8EF0120647058A0094
:1004FE00010585000205800004057B0008057600D5
:10050E001005710020056C00400567008005620132
:10051E0000055D02000558040005530800054E1045
:10052E00000549200005444000053F8000000005FD
:10053E008F750804804E750805804975080680443D
:10054E00750807803F750808803A7508098035756B
:10055E00080A803075080B802B75080C80267508EC
:10056E000D802175080E801C75080F8017750810F8
:10057E008012750811800D75081280087508138099
:06058E0003E4F508AF08CC
:010594002244
:06037A008B088A09890AC4
:10038000E4F50EF50FF50EE50ED3940740030204D5
:100390008DAB08AA09A90A850F827583001205AEE4
:1003A000120621045A2004552D03EC3003F13103C9
:1003B000F63203FB33040034040535040A36040F17
:1003C00037041438041939041E4104234204284315
:1003D000042D44043245043746043C4804414C048F
:1003E000464E044B500450550000045A7510C0800E
:1003F0006C7510F980677510A480627510B0805D0F
:1004000075109980587510928053751082804E75C2
:1004100010F880497510808044751090803F7510E9
:1004200088803A75108380357510C680307510A1AC
:10043000802B751086802675108E8021751089801E
:100440001C7510C780177510C8801275108C800D30
:100450007510C180087510BF80037510FF850F826D
:10046000758300A3AB08AA09A90A1205AEB42E052C
:1004700053107F050FAB0BAA0CA90D850E82758357
:0D04800000E5101205ED050E050F020387C3
:01048D00224C
:1008F0007401A805088002C333D8FCF580E5A05434
:100900001F44C0F5A053A01F7580FFE5A0541F44ED
:10091000E0F5A053A01FAF058F827583001205AECE
:0E092000F580E5A0541F44E0F5A053A01F226F
:040BA5007F057E004A
:100BA9007C007D0C12060FEF1FAC0670011E4C7005
:020BB900F62222
:020AB200AB0790
:100AB400E4FAC294EB139294120BA5D294EBC313F1
:0C0AC400FB0ABA08ED7F057E00020BA9BA
:100B5D00E4FAC294EBC313FBD294309403430380A5
:090B6D00120BA50ABA08EBAF0354
:010B7600225C
:1009D200C20AD2947F0C7E00120BA9C2947F507E71
:1009E20000120BA9D2947F0A7E00120BA9A2949244
:0609F2000A120BA5A20A87
:0109F80022DC
:1009F9001209D27FCC120AB27F44120AB21209D26A
:100A09007FCC120AB27FBE120AB2120B5DA907127D
:060A19000B5DEFFEE9FF9A
:010A1F0022B4
:100BE400E4FEC297EF1392A3EFC313FFD2970EBE96
:020BF40008F007
:010BF60022DC
:080B260075F00A84E5F04EFDB4
:100B2E00C29300C29700D29300120BE4AF05120BD2
:040B3E00E4C2932258
:10096B00E4FDC29300C29700D29300120BE4E4FFA4
:10097B00C297EDC313FD30A303430580D2970FBF7E
:10098B0008EEC29300C29700D29700C2A300D2A375
:03099B0000AF05A5
:01099E002236
:10080C00E4FD7F8E120B2E120595FF75F00A84C441
:10081C0054F0FEEF7F84120B269000011205AEFF00
:10082C0075F00A84C454F0FEEF7F82120B26900000
:10083C00021205AEFF75F00A84C454F0FEEF75F099
:10084C000A84E5F04EFD7F80120B2E7D807F8E0298
:02085C000B2E61
:1008AB007F8512096BEFC4540F75F00AA4FEEF5449
:1008BB000F2E1205DB7F8312096BEFC4540F75F0FB
:1008CB000AA4FEEF540F2E9000011205ED7F81124A
:1008DB00096BEFC4540F75F00AA4FEEF540F2E9062
:0508EB0000020205ED12
:040C2400D2A07F05D6
:080C280000AE071FEE70F92277
:0F0C0700D2A1120C24C2A17F05120C28C2A02278
:0C0C3000C2A1120C24D2A17F05020C28E6
:100B8E00C2A0A20B92A17F05120C28120C24C2A0A7
:070B9E00D2A17F05020C2823
:0A0B4200AB07120C077F901209A602
:100B4C00120C24A2A1920CC2A07F05120C28A20C9C
:010B5C002276
:07099F00AB05120C077FA05D
:0209A600AD079B
:1009A800E4FCC2A07F05120C28ED30E704D2A18038
:1009B80002C2A17F05120C28D2A0ED25E0FD7F051B
:0909C800120C280CBC08DBC2A0D3
:0109D1002203
:100AED00E4FC120C24ED25E0FD30A103430501C209
:0C0AFD00A07F05120C280CBC08E8AF0517
:010B090022C9
:100A6D00120B42AF031209A6120B4C120C077F9109
:100A7D001209A6120B4C120AEDAD07D20B120B8EFA
:050A8D00120C30AF0562
:010A92002241
:10085E008B468A47894812099F120B4CAF03120927
:10086E00A6120B4C120C077FA11209A6120B4CAF4D
:10087E004A154AEF6024120AEDAB460548E548AA30
:10088E00477002054714F9EF1205DBE54A6004C212
:0D089E000B8002D20B120B8E80D5020C30A5
:100BBB00120B427F411209A6120B4CAF031209A66E
:060BCB00120B4C020C307D
:10092E008B4B8A4C894D12099F120B4CAF03120947
:10093E00A6120B4CAF4F154FEF601FAB4B054DE59D
:10094E004DAA4C7002054C14F9120595FF1209A61A
:0D095E00120B4C7FC8120C2880DA020C30FE
:03000000020726CE
:0C072600787FE4F6D8FD75814F02076D66
:10059500BB010689828A83E0225002E722BBFE0264
:0905A500E32289828A83E4932297
:1005AE00BB010CE58229F582E5833AF583E0225002
:1005BE0006E92582F8E622BBFE06E92582F8E2224C
:0D05CE00E58229F582E5833AF583E4932266
:1005DB00BB010689828A83F0225002F722BBFE01FF
:0205EB00F322F9
:1005ED00F8BB010DE58229F582E5833AF583E8F044
:1005FD00225006E92582C8F622BBFE05E92582C8F0
:02060D00F222D7
:10060F00EF8DF0A4A8F0CF8CF0A428CE8DF0A42EFF
:02061F00FE22B9
:10062100D083D082F8E4937012740193700DA3A368
:1006310093F8740193F5828883E47374029368607C
:06064100EFA3A3A380DF7C
:10064700D083D082F8E4937012740193700DA3A342
:1006570093F8740193F5828883E473740293B5F079
:0D066700067403936860E9A3A3A3A380D8E1
:10001E00E517240BF8E60517227808300702780B4F
:10002E00E475F0011206740205952000EB7F2ED2C6
:10003E00008018EF540F2490D43440D4FF30040BBA
:10004E00EF24BFB41A0050032461FFE518600215B7
:10005E0018051BE51B7002051A30070D7808E475AC
:10006E00F001120674EF0205DB020A207403D207B8
:10007E008003E4C207F5178B088A09890AE4F5188C
:10008E00F51AF51BE51860077F2012005980F575EB
:10009E0019FFC201C200C202C203C205C206C208D3
:1000AE00120027FF700D3007057F0012006AAF1B8C
:1000BE00AE1A22B4255FC2D5C204120027FF24D087
:1000CE00B40A00501A75F00A781830D50508B6FF34
:1000DE000106C6A426F620D5047002D20380D924C8
:1000EE00CFB41A00EF5004C2E5D20402026AD20164
:1000FE0080C6D20080C0D20280BCD2D580BAD205D2
:10010E0080B47F201200592002077401B5180040F8
:10011E00F112001EFF120059020092D208D2068080
:10012E009512001EFB12001EFA12001EF94A4B70A9
:10013E0006793B7A037BFF20022EE518602A7E00AB
:10014E008E827583001205AE60060EEE651970F094
:10015E00C2D5EBC0E0EAC0E0E9C0E0EE1202B1D0D9
:10016E00E0F9D0E0FAD0E0FB120595FF60AAEBC0F3
:10017E00E0EAC0E0E9C0E0120059D0E02401F9D075
:10018E00E03400FAD0E0FBE5190460DCD519D98023
:10019E00877BFF7A0279ADD202809C79108002793A
:1001AE0008C206C2088008D2D5790A8004790AC22C
:1001BE00D5E519047002F519E4FAFDFEFF12001ED2
:1001CE00FC7B0820011312001EFD7B1030000A126A
:1001DE00001EFE12001EFF7B20EC3382D592D550FE
:1001EE0013C3E43000069FFFE49EFEE42001039D4E
:1001FE00FDE49CFCE4CBF8C201EC700CCFCECDCC70
:10020E00E824F8F870F38017C3EF33FFEE33FEEDFA
:10021E0033FDEC33FCEB33FB994002FB0FD8E9EBDB
:10022E00300105F8D0E0C448B201C0E00AEC4D4EF2
:10023E004F78207B0070C2EAB5190040BCC0E012B6
:10024E0002B3D0F0D0E0200104C4C0E0C4B201C0BB
:10025E00F0120042D0F0D5F0EB020092120621010E
:10026E002F5301A95801004C00FC4201AD4F01B5BE
:0F027E004401B54901154301BB55019F46019F3E
:10028D0045019F47035B5001042D01082E012B2BC7
:10029D00010C2301292003442A00C4480000012336
:1002AD003F3F3F00790AA2D5200314300509B9104C
:1002BD00020404B9080104A2D5200602500104204D
:1002CD0002689202B518005034C0E07F2030031947
:1002DD007F30A20272067205500F12030AC202C2CB
:1002ED0006C205C2087F30800F300503E9C0E01259
:1002FD000059300503D0E0F9D0E0B518CC30051722
:10030D007F30B9100C1200597F583004077F788068
:10031D0003B908031200593002057F2D0200597FE1
:10032D00202008F87F2B2006F322920280CF286E22
:10033D00756C6C2900D20112001E3001F8C20178D3
:10034D001830D50108F60200C42D5043495812004B
:10035D001E2403B405004001E49003569312004A95
:0D036D00743A12004AD2037518040201A967
:10073200020B0AE493A3F8E493A34003F68001F2C8
:1007420008DFF48029E493A3F85407240CC8C333C8
:10075200C4540F4420C8834004F456800146F6DF97
:10076200E4800B0102040810204080900C16E47E05
:10077200019360BCA3FF543F30E509541FFEE4938C
:10078200A360010ECF54C025E060A840B8E493A353
:10079200FAE493A3F8E493A3C8C582C8CAC583CA7E
:1007A200F0A3C8C582C8CAC583CADFE9DEE780BE36
:010C230000D0
:10067400FAE6FB0808E6F925F0F618E6CA3AF62287
:100A2000EFB40A07740D120A2B740A309811A899B2
:100A3000B8130CC2983098FDA899C298B811F63036
:070A400099FDC299F599220E
:00000001FF
